{
  "_format": "hh-sol-artifact-1",
  "contractName": "TestCustomERC721",
  "sourceName": "contracts/TestCustomERC721.sol",
  "abi": [
    {
      "inputs": [
        {
          "internalType": "string",
          "name": "name_",
          "type": "string"
        },
        {
          "internalType": "string",
          "name": "symbol_",
          "type": "string"
        }
      ],
      "stateMutability": "nonpayable",
      "type": "constructor"
    },
    {
      "anonymous": false,
      "inputs": [
        {
          "indexed": true,
          "internalType": "address",
          "name": "owner",
          "type": "address"
        },
        {
          "indexed": true,
          "internalType": "address",
          "name": "approved",
          "type": "address"
        },
        {
          "indexed": true,
          "internalType": "uint256",
          "name": "tokenId",
          "type": "uint256"
        }
      ],
      "name": "Approval",
      "type": "event"
    },
    {
      "anonymous": false,
      "inputs": [
        {
          "indexed": true,
          "internalType": "address",
          "name": "owner",
          "type": "address"
        },
        {
          "indexed": true,
          "internalType": "address",
          "name": "operator",
          "type": "address"
        },
        {
          "indexed": false,
          "internalType": "bool",
          "name": "approved",
          "type": "bool"
        }
      ],
      "name": "ApprovalForAll",
      "type": "event"
    },
    {
      "anonymous": false,
      "inputs": [
        {
          "indexed": true,
          "internalType": "address",
          "name": "from",
          "type": "address"
        },
        {
          "indexed": true,
          "internalType": "uint256",
          "name": "tokenId",
          "type": "uint256"
        }
      ],
      "name": "Burn",
      "type": "event"
    },
    {
      "anonymous": false,
      "inputs": [
        {
          "indexed": true,
          "internalType": "address",
          "name": "to",
          "type": "address"
        },
        {
          "indexed": true,
          "internalType": "uint256",
          "name": "tokenId",
          "type": "uint256"
        }
      ],
      "name": "Mint",
      "type": "event"
    },
    {
      "anonymous": false,
      "inputs": [
        {
          "indexed": true,
          "internalType": "address",
          "name": "previousOwner",
          "type": "address"
        },
        {
          "indexed": true,
          "internalType": "address",
          "name": "newOwner",
          "type": "address"
        }
      ],
      "name": "OwnershipTransferred",
      "type": "event"
    },
    {
      "anonymous": false,
      "inputs": [
        {
          "indexed": true,
          "internalType": "address",
          "name": "from",
          "type": "address"
        },
        {
          "indexed": true,
          "internalType": "address",
          "name": "to",
          "type": "address"
        },
        {
          "indexed": true,
          "internalType": "uint256",
          "name": "tokenId",
          "type": "uint256"
        }
      ],
      "name": "Transfer",
      "type": "event"
    },
    {
      "inputs": [],
      "name": "allTokensCount",
      "outputs": [
        {
          "internalType": "uint256",
          "name": "",
          "type": "uint256"
        }
      ],
      "stateMutability": "view",
      "type": "function"
    },
    {
      "inputs": [
        {
          "internalType": "address",
          "name": "to",
          "type": "address"
        },
        {
          "internalType": "uint256",
          "name": "tokenId",
          "type": "uint256"
        }
      ],
      "name": "approve",
      "outputs": [],
      "stateMutability": "nonpayable",
      "type": "function"
    },
    {
      "inputs": [
        {
          "internalType": "address",
          "name": "ownerAddr",
          "type": "address"
        }
      ],
      "name": "balanceOf",
      "outputs": [
        {
          "internalType": "uint256",
          "name": "",
          "type": "uint256"
        }
      ],
      "stateMutability": "view",
      "type": "function"
    },
    {
      "inputs": [
        {
          "internalType": "uint256",
          "name": "tokenId",
          "type": "uint256"
        }
      ],
      "name": "burn",
      "outputs": [],
      "stateMutability": "nonpayable",
      "type": "function"
    },
    {
      "inputs": [
        {
          "internalType": "uint256",
          "name": "tokenId",
          "type": "uint256"
        }
      ],
      "name": "exposedAddTokenToAllTokensEnumeration",
      "outputs": [],
      "stateMutability": "nonpayable",
      "type": "function"
    },
    {
      "inputs": [
        {
          "internalType": "address",
          "name": "to",
          "type": "address"
        },
        {
          "internalType": "uint256",
          "name": "tokenId",
          "type": "uint256"
        }
      ],
      "name": "exposedAddTokenToOwnerEnumeration",
      "outputs": [],
      "stateMutability": "nonpayable",
      "type": "function"
    },
    {
      "inputs": [
        {
          "internalType": "uint256",
          "name": "tokenId",
          "type": "uint256"
        },
        {
          "internalType": "address",
          "name": "to",
          "type": "address"
        }
      ],
      "name": "exposedApprove",
      "outputs": [],
      "stateMutability": "nonpayable",
      "type": "function"
    },
    {
      "inputs": [
        {
          "internalType": "uint256",
          "name": "tokenId",
          "type": "uint256"
        }
      ],
      "name": "exposedBurn",
      "outputs": [],
      "stateMutability": "nonpayable",
      "type": "function"
    },
    {
      "inputs": [
        {
          "internalType": "address",
          "name": "from",
          "type": "address"
        },
        {
          "internalType": "address",
          "name": "to",
          "type": "address"
        },
        {
          "internalType": "uint256",
          "name": "tokenId",
          "type": "uint256"
        },
        {
          "internalType": "bytes",
          "name": "data",
          "type": "bytes"
        }
      ],
      "name": "exposedCheckOnERC721Received",
      "outputs": [
        {
          "internalType": "bool",
          "name": "",
          "type": "bool"
        }
      ],
      "stateMutability": "nonpayable",
      "type": "function"
    },
    {
      "inputs": [
        {
          "internalType": "uint256",
          "name": "tokenId",
          "type": "uint256"
        }
      ],
      "name": "exposedExists",
      "outputs": [
        {
          "internalType": "bool",
          "name": "",
          "type": "bool"
        }
      ],
      "stateMutability": "view",
      "type": "function"
    },
    {
      "inputs": [
        {
          "internalType": "address",
          "name": "spender",
          "type": "address"
        },
        {
          "internalType": "uint256",
          "name": "tokenId",
          "type": "uint256"
        }
      ],
      "name": "exposedIsApprovedOrOwner",
      "outputs": [
        {
          "internalType": "bool",
          "name": "",
          "type": "bool"
        }
      ],
      "stateMutability": "view",
      "type": "function"
    },
    {
      "inputs": [
        {
          "internalType": "address",
          "name": "to",
          "type": "address"
        },
        {
          "internalType": "uint256",
          "name": "tokenId",
          "type": "uint256"
        }
      ],
      "name": "exposedMint",
      "outputs": [],
      "stateMutability": "nonpayable",
      "type": "function"
    },
    {
      "inputs": [
        {
          "internalType": "uint256",
          "name": "tokenId",
          "type": "uint256"
        }
      ],
      "name": "exposedOwnerTokenIndex",
      "outputs": [
        {
          "internalType": "uint256",
          "name": "",
          "type": "uint256"
        }
      ],
      "stateMutability": "view",
      "type": "function"
    },
    {
      "inputs": [
        {
          "internalType": "uint256",
          "name": "tokenId",
          "type": "uint256"
        }
      ],
      "name": "exposedRemoveTokenFromAllTokensEnumeration",
      "outputs": [],
      "stateMutability": "nonpayable",
      "type": "function"
    },
    {
      "inputs": [
        {
          "internalType": "address",
          "name": "from",
          "type": "address"
        },
        {
          "internalType": "uint256",
          "name": "tokenId",
          "type": "uint256"
        }
      ],
      "name": "exposedRemoveTokenFromOwnerEnumeration",
      "outputs": [],
      "stateMutability": "nonpayable",
      "type": "function"
    },
    {
      "inputs": [
        {
          "internalType": "address",
          "name": "from",
          "type": "address"
        },
        {
          "internalType": "address",
          "name": "to",
          "type": "address"
        },
        {
          "internalType": "uint256",
          "name": "tokenId",
          "type": "uint256"
        },
        {
          "internalType": "bytes",
          "name": "_data",
          "type": "bytes"
        }
      ],
      "name": "exposedSafeTransfer",
      "outputs": [],
      "stateMutability": "nonpayable",
      "type": "function"
    },
    {
      "inputs": [
        {
          "internalType": "address",
          "name": "operator",
          "type": "address"
        },
        {
          "internalType": "bool",
          "name": "approved",
          "type": "bool"
        }
      ],
      "name": "exposedSetApprovalForAll",
      "outputs": [],
      "stateMutability": "nonpayable",
      "type": "function"
    },
    {
      "inputs": [
        {
          "internalType": "address",
          "name": "ownerAddr",
          "type": "address"
        },
        {
          "internalType": "uint256",
          "name": "index",
          "type": "uint256"
        }
      ],
      "name": "exposedTokenOfOwnerByIndex",
      "outputs": [
        {
          "internalType": "uint256",
          "name": "",
          "type": "uint256"
        }
      ],
      "stateMutability": "view",
      "type": "function"
    },
    {
      "inputs": [
        {
          "internalType": "address",
          "name": "from",
          "type": "address"
        },
        {
          "internalType": "address",
          "name": "to",
          "type": "address"
        },
        {
          "internalType": "uint256",
          "name": "tokenId",
          "type": "uint256"
        }
      ],
      "name": "exposedTransfer",
      "outputs": [],
      "stateMutability": "nonpayable",
      "type": "function"
    },
    {
      "inputs": [
        {
          "internalType": "uint256",
          "name": "_i",
          "type": "uint256"
        }
      ],
      "name": "exposedUint2str",
      "outputs": [
        {
          "internalType": "string",
          "name": "",
          "type": "string"
        }
      ],
      "stateMutability": "pure",
      "type": "function"
    },
    {
      "inputs": [
        {
          "internalType": "uint256",
          "name": "tokenId",
          "type": "uint256"
        }
      ],
      "name": "getApproved",
      "outputs": [
        {
          "internalType": "address",
          "name": "",
          "type": "address"
        }
      ],
      "stateMutability": "view",
      "type": "function"
    },
    {
      "inputs": [
        {
          "internalType": "address",
          "name": "ownerAddr",
          "type": "address"
        },
        {
          "internalType": "address",
          "name": "operator",
          "type": "address"
        }
      ],
      "name": "isApprovedForAll",
      "outputs": [
        {
          "internalType": "bool",
          "name": "",
          "type": "bool"
        }
      ],
      "stateMutability": "view",
      "type": "function"
    },
    {
      "inputs": [],
      "name": "mint",
      "outputs": [
        {
          "internalType": "uint256",
          "name": "",
          "type": "uint256"
        }
      ],
      "stateMutability": "nonpayable",
      "type": "function"
    },
    {
      "inputs": [
        {
          "internalType": "address",
          "name": "to",
          "type": "address"
        },
        {
          "internalType": "uint256",
          "name": "tokenId",
          "type": "uint256"
        }
      ],
      "name": "mint",
      "outputs": [],
      "stateMutability": "nonpayable",
      "type": "function"
    },
    {
      "inputs": [],
      "name": "name",
      "outputs": [
        {
          "internalType": "string",
          "name": "",
          "type": "string"
        }
      ],
      "stateMutability": "view",
      "type": "function"
    },
    {
      "inputs": [],
      "name": "nextTokenId",
      "outputs": [
        {
          "internalType": "uint256",
          "name": "",
          "type": "uint256"
        }
      ],
      "stateMutability": "view",
      "type": "function"
    },
    {
      "inputs": [],
      "name": "owner",
      "outputs": [
        {
          "internalType": "address",
          "name": "",
          "type": "address"
        }
      ],
      "stateMutability": "view",
      "type": "function"
    },
    {
      "inputs": [
        {
          "internalType": "uint256",
          "name": "tokenId",
          "type": "uint256"
        }
      ],
      "name": "ownerOf",
      "outputs": [
        {
          "internalType": "address",
          "name": "",
          "type": "address"
        }
      ],
      "stateMutability": "view",
      "type": "function"
    },
    {
      "inputs": [
        {
          "internalType": "uint256",
          "name": "index",
          "type": "uint256"
        }
      ],
      "name": "readAllToken",
      "outputs": [
        {
          "internalType": "uint256",
          "name": "",
          "type": "uint256"
        }
      ],
      "stateMutability": "view",
      "type": "function"
    },
    {
      "inputs": [
        {
          "internalType": "uint256",
          "name": "tokenId",
          "type": "uint256"
        }
      ],
      "name": "readTokenIndex",
      "outputs": [
        {
          "internalType": "uint256",
          "name": "",
          "type": "uint256"
        }
      ],
      "stateMutability": "view",
      "type": "function"
    },
    {
      "inputs": [
        {
          "internalType": "address",
          "name": "ownerAddr",
          "type": "address"
        },
        {
          "internalType": "uint256",
          "name": "index",
          "type": "uint256"
        }
      ],
      "name": "readTokenOwner",
      "outputs": [
        {
          "internalType": "uint256",
          "name": "",
          "type": "uint256"
        }
      ],
      "stateMutability": "view",
      "type": "function"
    },
    {
      "inputs": [
        {
          "internalType": "address",
          "name": "from",
          "type": "address"
        },
        {
          "internalType": "address",
          "name": "to",
          "type": "address"
        },
        {
          "internalType": "uint256",
          "name": "tokenId",
          "type": "uint256"
        }
      ],
      "name": "safeTransferFrom",
      "outputs": [],
      "stateMutability": "nonpayable",
      "type": "function"
    },
    {
      "inputs": [
        {
          "internalType": "address",
          "name": "from",
          "type": "address"
        },
        {
          "internalType": "address",
          "name": "to",
          "type": "address"
        },
        {
          "internalType": "uint256",
          "name": "tokenId",
          "type": "uint256"
        },
        {
          "internalType": "bytes",
          "name": "data",
          "type": "bytes"
        }
      ],
      "name": "safeTransferFrom",
      "outputs": [],
      "stateMutability": "nonpayable",
      "type": "function"
    },
    {
      "inputs": [
        {
          "internalType": "address",
          "name": "operator",
          "type": "address"
        },
        {
          "internalType": "bool",
          "name": "approved",
          "type": "bool"
        }
      ],
      "name": "setApprovalForAll",
      "outputs": [],
      "stateMutability": "nonpayable",
      "type": "function"
    },
    {
      "inputs": [
        {
          "internalType": "bytes4",
          "name": "interfaceId",
          "type": "bytes4"
        }
      ],
      "name": "supportsInterface",
      "outputs": [
        {
          "internalType": "bool",
          "name": "",
          "type": "bool"
        }
      ],
      "stateMutability": "pure",
      "type": "function"
    },
    {
      "inputs": [],
      "name": "symbol",
      "outputs": [
        {
          "internalType": "string",
          "name": "",
          "type": "string"
        }
      ],
      "stateMutability": "view",
      "type": "function"
    },
    {
      "inputs": [
        {
          "internalType": "uint256",
          "name": "index",
          "type": "uint256"
        }
      ],
      "name": "tokenByIndex",
      "outputs": [
        {
          "internalType": "uint256",
          "name": "",
          "type": "uint256"
        }
      ],
      "stateMutability": "view",
      "type": "function"
    },
    {
      "inputs": [
        {
          "internalType": "address",
          "name": "ownerAddr",
          "type": "address"
        }
      ],
      "name": "tokenCount",
      "outputs": [
        {
          "internalType": "uint256",
          "name": "",
          "type": "uint256"
        }
      ],
      "stateMutability": "view",
      "type": "function"
    },
    {
      "inputs": [
        {
          "internalType": "address",
          "name": "ownerAddr",
          "type": "address"
        },
        {
          "internalType": "uint256",
          "name": "index",
          "type": "uint256"
        }
      ],
      "name": "tokenOfOwnerByIndex",
      "outputs": [
        {
          "internalType": "uint256",
          "name": "",
          "type": "uint256"
        }
      ],
      "stateMutability": "view",
      "type": "function"
    },
    {
      "inputs": [
        {
          "internalType": "uint256",
          "name": "tokenId",
          "type": "uint256"
        }
      ],
      "name": "tokenURI",
      "outputs": [
        {
          "internalType": "string",
          "name": "",
          "type": "string"
        }
      ],
      "stateMutability": "view",
      "type": "function"
    },
    {
      "inputs": [],
      "name": "totalSupply",
      "outputs": [
        {
          "internalType": "uint256",
          "name": "",
          "type": "uint256"
        }
      ],
      "stateMutability": "view",
      "type": "function"
    },
    {
      "inputs": [
        {
          "internalType": "address",
          "name": "from",
          "type": "address"
        },
        {
          "internalType": "address",
          "name": "to",
          "type": "address"
        },
        {
          "internalType": "uint256",
          "name": "tokenId",
          "type": "uint256"
        }
      ],
      "name": "transferFrom",
      "outputs": [],
      "stateMutability": "nonpayable",
      "type": "function"
    },
    {
      "inputs": [
        {
          "internalType": "address",
          "name": "newOwner",
          "type": "address"
        }
      ],
      "name": "transferOwnership",
      "outputs": [],
      "stateMutability": "nonpayable",
      "type": "function"
    }
  ],
  "bytecode": "0x60806040526001600e5534801561001557600080fd5b50604051614ada380380614ada8339818101604052810190610037919061023f565b8181816000908161004891906104d8565b50806001908161005891906104d8565b50604051806020016040528060008152506002908161007791906104d8565b5033600c60006101000a81548173ffffffffffffffffffffffffffffffffffffffff021916908373ffffffffffffffffffffffffffffffffffffffff1602179055506001600d81905550505050506105aa565b6000604051905090565b600080fd5b600080fd5b600080fd5b600080fd5b6000601f19601f8301169050919050565b7f4e487b7100000000000000000000000000000000000000000000000000000000600052604160045260246000fd5b610131826100e8565b810181811067ffffffffffffffff821117156101505761014f6100f9565b5b80604052505050565b60006101636100ca565b905061016f8282610128565b919050565b600067ffffffffffffffff82111561018f5761018e6100f9565b5b610198826100e8565b9050602081019050919050565b60005b838110156101c35780820151818401526020810190506101a8565b60008484015250505050565b60006101e26101dd84610174565b610159565b9050828152602081018484840111156101fe576101fd6100e3565b5b6102098482856101a5565b509392505050565b600082601f830112610226576102256100de565b5b81516102368482602086016101cf565b91505092915050565b60008060408385031215610256576102556100d4565b5b600083015167ffffffffffffffff811115610274576102736100d9565b5b61028085828601610211565b925050602083015167ffffffffffffffff8111156102a1576102a06100d9565b5b6102ad85828601610211565b9150509250929050565b600081519050919050565b7f4e487b7100000000000000000000000000000000000000000000000000000000600052602260045260246000fd5b6000600282049050600182168061030957607f821691505b60208210810361031c5761031b6102c2565b5b50919050565b60008190508160005260206000209050919050565b60006020601f8301049050919050565b600082821b905092915050565b6000600883026103847fffffffffffffffffffffffffffffffffffffffffffffffffffffffffffffffff82610347565b61038e8683610347565b95508019841693508086168417925050509392505050565b6000819050919050565b6000819050919050565b60006103d56103d06103cb846103a6565b6103b0565b6103a6565b9050919050565b6000819050919050565b6103ef836103ba565b6104036103fb826103dc565b848454610354565b825550505050565b600090565b61041861040b565b6104238184846103e6565b505050565b5b818110156104475761043c600082610410565b600181019050610429565b5050565b601f82111561048c5761045d81610322565b61046684610337565b81016020851015610475578190505b61048961048185610337565b830182610428565b50505b505050565b600082821c905092915050565b60006104af60001984600802610491565b1980831691505092915050565b60006104c8838361049e565b9150826002028217905092915050565b6104e1826102b7565b67ffffffffffffffff8111156104fa576104f96100f9565b5b61050482546102f1565b61050f82828561044b565b600060209050601f8311600181146105425760008415610530578287015190505b61053a85826104bc565b8655506105a2565b601f19841661055086610322565b60005b8281101561057857848901518255600182019150602085019450602081019050610553565b868310156105955784890151610591601f89168261049e565b8355505b6001600288020188555050505b505050505050565b614521806105b96000396000f3fe608060405234801561001057600080fd5b50600436106102695760003560e01c806350495ba9116101515780638e78c634116100c3578063d71fe5f011610087578063d71fe5f0146107b4578063e7ed2971146107d0578063e972fb8414610800578063e985e9c514610830578063ec4b08bf14610860578063f2fde38b1461087c57610269565b80638e78c6341461071257806395d89b411461072e578063a22cb4651461074c578063b88d4fde14610768578063c87b56dd1461078457610269565b806370a082311161011557806370a082311461062a5780637349dd401461065a57806375794a3c14610676578063798f35f91461069457806388515881146106c45780638da5cb5b146106f457610269565b806350495ba91461054e57806356225a091461056a5780635af9c4d81461059a5780636352211e146105ca5780636551d349146105fa57610269565b80631b74457f116101ea5780632f745c59116101ae5780632f745c591461047e57806340c10f19146104ae57806341af71d9146104ca57806342842e0e146104e657806342966c68146105025780634f6ccce71461051e57610269565b80631b74457f146103dc5780631e82b8671461040c57806320d52dfa1461042a57806323b872dd146104465780632e8b3d0f1461046257610269565b8063095ea7b311610231578063095ea7b3146103385780631249c58b1461035457806316b862181461037257806318160ddd1461038e5780631a2bc4fd146103ac57610269565b806301ffc9a71461026e57806305c89d3f1461029e57806306184c83146102ba57806306fdde03146102ea578063081812fc14610308575b600080fd5b61028860048036038101906102839190612dec565b610898565b6040516102959190612e34565b60405180910390f35b6102b860048036038101906102b39190612ee3565b61092a565b005b6102d460048036038101906102cf9190612f36565b61093a565b6040516102e19190612f72565b60405180910390f35b6102f2610957565b6040516102ff919061301d565b60405180910390f35b610322600480360381019061031d9190612f36565b6109e9565b60405161032f919061304e565b60405180910390f35b610352600480360381019061034d9190613069565b610a70565b005b61035c610bc3565b6040516103699190612f72565b60405180910390f35b61038c60048036038101906103879190613069565b610bf4565b005b610396610d6f565b6040516103a39190612f72565b60405180910390f35b6103c660048036038101906103c19190613069565b610d7c565b6040516103d39190612e34565b60405180910390f35b6103f660048036038101906103f19190612f36565b610d90565b604051610403919061301d565b60405180910390f35b610414610da2565b6040516104219190612f72565b60405180910390f35b610444600480360381019061043f9190613069565b610daf565b005b610460600480360381019061045b9190612ee3565b610dbd565b005b61047c60048036038101906104779190612f36565b610e6b565b005b61049860048036038101906104939190613069565b610e77565b6040516104a59190612f72565b60405180910390f35b6104c860048036038101906104c39190613069565b610f27565b005b6104e460048036038101906104df91906130d5565b610fc5565b005b61050060048036038101906104fb9190612ee3565b610fd3565b005b61051c60048036038101906105179190612f36565b611048565b005b61053860048036038101906105339190612f36565b61111f565b6040516105459190612f72565b60405180910390f35b61056860048036038101906105639190613115565b611190565b005b610584600480360381019061057f9190613155565b61119e565b6040516105919190612f72565b60405180910390f35b6105b460048036038101906105af9190613069565b6111ea565b6040516105c19190612f72565b60405180910390f35b6105e460048036038101906105df9190612f36565b6112d4565b6040516105f1919061304e565b60405180910390f35b610614600480360381019061060f9190612f36565b61135b565b6040516106219190612f72565b60405180910390f35b610644600480360381019061063f9190613155565b6113ca565b6040516106519190612f72565b60405180910390f35b610674600480360381019061066f9190612f36565b611481565b005b61067e61148d565b60405161068b9190612f72565b60405180910390f35b6106ae60048036038101906106a99190612f36565b611493565b6040516106bb9190612f72565b60405180910390f35b6106de60048036038101906106d99190612f36565b6114b0565b6040516106eb9190612e34565b60405180910390f35b6106fc6114c2565b604051610709919061304e565b60405180910390f35b61072c600480360381019061072791906131e7565b6114ec565b005b610736611543565b604051610743919061301d565b60405180910390f35b610766600480360381019061076191906130d5565b6115d5565b005b610782600480360381019061077d919061339f565b611740565b005b61079e60048036038101906107999190612f36565b6117f0565b6040516107ab919061301d565b60405180910390f35b6107ce60048036038101906107c99190613069565b61186e565b005b6107ea60048036038101906107e59190613069565b61187c565b6040516107f79190612f72565b60405180910390f35b61081a600480360381019061081591906131e7565b611966565b6040516108279190612e34565b60405180910390f35b61084a60048036038101906108459190613422565b6119c3565b6040516108579190612e34565b60405180910390f35b61087a60048036038101906108759190612f36565b611a57565b005b61089660048036038101906108919190613155565b611a63565b005b60006380ac58cd60e01b827bffffffffffffffffffffffffffffffffffffffffffffffffffffffff191614806108f35750635b5e139f60e01b827bffffffffffffffffffffffffffffffffffffffffffffffffffffffff1916145b80610923575063780e9d6360e01b827bffffffffffffffffffffffffffffffffffffffffffffffffffffffff1916145b9050919050565b610935838383611c22565b505050565b6000600a6000838152602001908152602001600020549050919050565b60606000805461096690613491565b80601f016020809104026020016040519081016040528092919081815260200182805461099290613491565b80156109df5780601f106109b4576101008083540402835291602001916109df565b820191906000526020600020905b8154815290600101906020018083116109c257829003601f168201915b5050505050905090565b6000816109f581611e86565b610a34576040517f08c379a0000000000000000000000000000000000000000000000000000000008152600401610a2b90613534565b60405180910390fd5b6005600084815260200190815260200160002060009054906101000a900473ffffffffffffffffffffffffffffffffffffffff16915050919050565b80610a7a81611e86565b610ab9576040517f08c379a0000000000000000000000000000000000000000000000000000000008152600401610ab090613534565b60405180910390fd5b6000610ac4836112d4565b90508073ffffffffffffffffffffffffffffffffffffffff168473ffffffffffffffffffffffffffffffffffffffff1603610b34576040517f08c379a0000000000000000000000000000000000000000000000000000000008152600401610b2b906135c6565b60405180910390fd5b8073ffffffffffffffffffffffffffffffffffffffff163373ffffffffffffffffffffffffffffffffffffffff161480610b745750610b7381336119c3565b5b610bb3576040517f08c379a0000000000000000000000000000000000000000000000000000000008152600401610baa90613658565b60405180910390fd5b610bbd8484611ef2565b50505050565b600080600e549050610bd53382611fab565b600e6000815480929190610be8906136a7565b91905055508091505090565b600073ffffffffffffffffffffffffffffffffffffffff168273ffffffffffffffffffffffffffffffffffffffff1603610c63576040517f08c379a0000000000000000000000000000000000000000000000000000000008152600401610c5a90613761565b60405180910390fd5b6000600960008473ffffffffffffffffffffffffffffffffffffffff1673ffffffffffffffffffffffffffffffffffffffff16815260200190815260200160002080549050905060005b81811015610d5f5782600960008673ffffffffffffffffffffffffffffffffffffffff1673ffffffffffffffffffffffffffffffffffffffff1681526020019081526020016000208281548110610d0757610d06613781565b5b906000526020600020015403610d52576040517f08c379a0000000000000000000000000000000000000000000000000000000008152600401610d4990613822565b60405180910390fd5b8080600101915050610cad565b50610d6a83836121c3565b505050565b6000600780549050905090565b6000610d888383612293565b905092915050565b6060610d9b82612373565b9050919050565b6000600780549050905090565b610db98282611fab565b5050565b6002600d5403610e02576040517f08c379a0000000000000000000000000000000000000000000000000000000008152600401610df99061388e565b60405180910390fd5b6002600d81905550610e143382612293565b610e53576040517f08c379a0000000000000000000000000000000000000000000000000000000008152600401610e4a90613920565b60405180910390fd5b610e5e838383611c22565b6001600d81905550505050565b610e74816124d3565b50565b6000610e82836113ca565b8210610ec3576040517f08c379a0000000000000000000000000000000000000000000000000000000008152600401610eba906139b2565b60405180910390fd5b600960008473ffffffffffffffffffffffffffffffffffffffff1673ffffffffffffffffffffffffffffffffffffffff1681526020019081526020016000208281548110610f1457610f13613781565b5b9060005260206000200154905092915050565b600c60009054906101000a900473ffffffffffffffffffffffffffffffffffffffff1673ffffffffffffffffffffffffffffffffffffffff163373ffffffffffffffffffffffffffffffffffffffff1614610fb7576040517f08c379a0000000000000000000000000000000000000000000000000000000008152600401610fae90613a1e565b60405180910390fd5b610fc18282611fab565b5050565b610fcf82826115d5565b5050565b6002600d5403611018576040517f08c379a000000000000000000000000000000000000000000000000000000000815260040161100f9061388e565b60405180910390fd5b6002600d8190555061103b83838360405180602001604052806000815250611740565b6001600d81905550505050565b6000611053826112d4565b90508073ffffffffffffffffffffffffffffffffffffffff163373ffffffffffffffffffffffffffffffffffffffff161480611095575061109481336119c3565b5b806110d357503373ffffffffffffffffffffffffffffffffffffffff166110bb836109e9565b73ffffffffffffffffffffffffffffffffffffffff16145b611112576040517f08c379a000000000000000000000000000000000000000000000000000000000815260040161110990613ab0565b60405180910390fd5b61111b826125a9565b5050565b6000611129610d6f565b821061116a576040517f08c379a000000000000000000000000000000000000000000000000000000000815260040161116190613b42565b60405180910390fd5b6007828154811061117e5761117d613781565b5b90600052602060002001549050919050565b61119a8183611ef2565b5050565b6000600960008373ffffffffffffffffffffffffffffffffffffffff1673ffffffffffffffffffffffffffffffffffffffff168152602001908152602001600020805490509050919050565b6000600960008473ffffffffffffffffffffffffffffffffffffffff1673ffffffffffffffffffffffffffffffffffffffff168152602001908152602001600020805490508210611270576040517f08c379a000000000000000000000000000000000000000000000000000000000815260040161126790613bae565b60405180910390fd5b600960008473ffffffffffffffffffffffffffffffffffffffff1673ffffffffffffffffffffffffffffffffffffffff16815260200190815260200160002082815481106112c1576112c0613781565b5b9060005260206000200154905092915050565b6000816112e081611e86565b61131f576040517f08c379a000000000000000000000000000000000000000000000000000000000815260040161131690613534565b60405180910390fd5b6003600084815260200190815260200160002060009054906101000a900473ffffffffffffffffffffffffffffffffffffffff16915050919050565b600060078054905082106113a4576040517f08c379a000000000000000000000000000000000000000000000000000000000815260040161139b90613bae565b60405180910390fd5b600782815481106113b8576113b7613781565b5b90600052602060002001549050919050565b60008073ffffffffffffffffffffffffffffffffffffffff168273ffffffffffffffffffffffffffffffffffffffff160361143a576040517f08c379a000000000000000000000000000000000000000000000000000000000815260040161143190613c40565b60405180910390fd5b600460008373ffffffffffffffffffffffffffffffffffffffff1673ffffffffffffffffffffffffffffffffffffffff168152602001908152602001600020549050919050565b61148a816125a9565b50565b600e5481565b600060086000838152602001908152602001600020549050919050565b60006114bb82611e86565b9050919050565b6000600c60009054906101000a900473ffffffffffffffffffffffffffffffffffffffff16905090565b61153c85858585858080601f016020809104026020016040519081016040528093929190818152602001838380828437600081840152601f19601f82011690508083019250505050505050612705565b5050505050565b60606001805461155290613491565b80601f016020809104026020016040519081016040528092919081815260200182805461157e90613491565b80156115cb5780601f106115a0576101008083540402835291602001916115cb565b820191906000526020600020905b8154815290600101906020018083116115ae57829003601f168201915b5050505050905090565b3373ffffffffffffffffffffffffffffffffffffffff168273ffffffffffffffffffffffffffffffffffffffff1603611643576040517f08c379a000000000000000000000000000000000000000000000000000000000815260040161163a90613cac565b60405180910390fd5b80600660003373ffffffffffffffffffffffffffffffffffffffff1673ffffffffffffffffffffffffffffffffffffffff16815260200190815260200160002060008473ffffffffffffffffffffffffffffffffffffffff1673ffffffffffffffffffffffffffffffffffffffff16815260200190815260200160002060006101000a81548160ff0219169083151502179055508173ffffffffffffffffffffffffffffffffffffffff163373ffffffffffffffffffffffffffffffffffffffff167f17307eab39ab6107e8899845ad3d59bd9653f200f220920489ca2b5937696c31836040516117349190612e34565b60405180910390a35050565b6002600d5403611785576040517f08c379a000000000000000000000000000000000000000000000000000000000815260040161177c9061388e565b60405180910390fd5b6002600d819055506117973383612293565b6117d6576040517f08c379a00000000000000000000000000000000000000000000000000000000081526004016117cd90613920565b60405180910390fd5b6117e284848484612705565b6001600d8190555050505050565b6060816117fc81611e86565b61183b576040517f08c379a000000000000000000000000000000000000000000000000000000000815260040161183290613534565b60405180910390fd5b600261184684612373565b604051602001611857929190613da0565b604051602081830303815290604052915050919050565b6118788282612761565b5050565b6000600960008473ffffffffffffffffffffffffffffffffffffffff1673ffffffffffffffffffffffffffffffffffffffff168152602001908152602001600020805490508210611902576040517f08c379a00000000000000000000000000000000000000000000000000000000081526004016118f990613bae565b60405180910390fd5b600960008473ffffffffffffffffffffffffffffffffffffffff1673ffffffffffffffffffffffffffffffffffffffff168152602001908152602001600020828154811061195357611952613781565b5b9060005260206000200154905092915050565b60006119b886868686868080601f016020809104026020016040519081016040528093929190818152602001838380828437600081840152601f19601f82011690508083019250505050505050612a84565b905095945050505050565b6000600660008473ffffffffffffffffffffffffffffffffffffffff1673ffffffffffffffffffffffffffffffffffffffff16815260200190815260200160002060008373ffffffffffffffffffffffffffffffffffffffff1673ffffffffffffffffffffffffffffffffffffffff16815260200190815260200160002060009054906101000a900460ff16905092915050565b611a6081612bbc565b50565b600c60009054906101000a900473ffffffffffffffffffffffffffffffffffffffff1673ffffffffffffffffffffffffffffffffffffffff163373ffffffffffffffffffffffffffffffffffffffff1614611af3576040517f08c379a0000000000000000000000000000000000000000000000000000000008152600401611aea90613a1e565b60405180910390fd5b600073ffffffffffffffffffffffffffffffffffffffff168173ffffffffffffffffffffffffffffffffffffffff1603611b62576040517f08c379a0000000000000000000000000000000000000000000000000000000008152600401611b5990613e36565b60405180910390fd5b8073ffffffffffffffffffffffffffffffffffffffff16600c60009054906101000a900473ffffffffffffffffffffffffffffffffffffffff1673ffffffffffffffffffffffffffffffffffffffff167f8be0079c531659141344cd1fd0a4f28419497f9722a3daafe3b4186f6b6457e060405160405180910390a380600c60006101000a81548173ffffffffffffffffffffffffffffffffffffffff021916908373ffffffffffffffffffffffffffffffffffffffff16021790555050565b8273ffffffffffffffffffffffffffffffffffffffff16611c42826112d4565b73ffffffffffffffffffffffffffffffffffffffff1614611c98576040517f08c379a0000000000000000000000000000000000000000000000000000000008152600401611c8f90613ec8565b60405180910390fd5b600073ffffffffffffffffffffffffffffffffffffffff168273ffffffffffffffffffffffffffffffffffffffff1603611d07576040517f08c379a0000000000000000000000000000000000000000000000000000000008152600401611cfe90613f34565b60405180910390fd5b611d12600082611ef2565b611d1c8382612761565b6001600460008573ffffffffffffffffffffffffffffffffffffffff1673ffffffffffffffffffffffffffffffffffffffff1681526020019081526020016000206000828254611d6c9190613f54565b92505081905550816003600083815260200190815260200160002060006101000a81548173ffffffffffffffffffffffffffffffffffffffff021916908373ffffffffffffffffffffffffffffffffffffffff1602179055506001600460008473ffffffffffffffffffffffffffffffffffffffff1673ffffffffffffffffffffffffffffffffffffffff1681526020019081526020016000206000828254611e159190613f88565b92505081905550611e2682826121c3565b808273ffffffffffffffffffffffffffffffffffffffff168473ffffffffffffffffffffffffffffffffffffffff167fddf252ad1be2c89b69c2b068fc378daa952ba7f163c4a11628f55a4df523b3ef60405160405180910390a4505050565b60008073ffffffffffffffffffffffffffffffffffffffff166003600084815260200190815260200160002060009054906101000a900473ffffffffffffffffffffffffffffffffffffffff1673ffffffffffffffffffffffffffffffffffffffff1614159050919050565b816005600083815260200190815260200160002060006101000a81548173ffffffffffffffffffffffffffffffffffffffff021916908373ffffffffffffffffffffffffffffffffffffffff160217905550808273ffffffffffffffffffffffffffffffffffffffff16611f65836112d4565b73ffffffffffffffffffffffffffffffffffffffff167f8c5be1e5ebec7d5bd14f71427d1e84f3dd0314c0f7b2291e5b200ac8c7c3b92560405160405180910390a45050565b600073ffffffffffffffffffffffffffffffffffffffff168273ffffffffffffffffffffffffffffffffffffffff160361201a576040517f08c379a000000000000000000000000000000000000000000000000000000000815260040161201190614008565b60405180910390fd5b61202381611e86565b15612063576040517f08c379a000000000000000000000000000000000000000000000000000000000815260040161205a90614074565b60405180910390fd5b6001600460008473ffffffffffffffffffffffffffffffffffffffff1673ffffffffffffffffffffffffffffffffffffffff16815260200190815260200160002060008282546120b39190613f88565b92505081905550816003600083815260200190815260200160002060006101000a81548173ffffffffffffffffffffffffffffffffffffffff021916908373ffffffffffffffffffffffffffffffffffffffff16021790555061211682826121c3565b61211f816124d3565b808273ffffffffffffffffffffffffffffffffffffffff16600073ffffffffffffffffffffffffffffffffffffffff167fddf252ad1be2c89b69c2b068fc378daa952ba7f163c4a11628f55a4df523b3ef60405160405180910390a4808273ffffffffffffffffffffffffffffffffffffffff167f0f6798a560793a54c3bcfe86a93cde1e73087d944c0ea20544137d412139688560405160405180910390a35050565b600960008373ffffffffffffffffffffffffffffffffffffffff1673ffffffffffffffffffffffffffffffffffffffff1681526020019081526020016000208190806001815401808255809150506001900390600052602060002001600090919091909150556001600960008473ffffffffffffffffffffffffffffffffffffffff1673ffffffffffffffffffffffffffffffffffffffff168152602001908152602001600020805490506122789190613f54565b600a6000838152602001908152602001600020819055505050565b60008161229f81611e86565b6122de576040517f08c379a00000000000000000000000000000000000000000000000000000000081526004016122d590613534565b60405180910390fd5b60006122e9846112d4565b90508073ffffffffffffffffffffffffffffffffffffffff168573ffffffffffffffffffffffffffffffffffffffff16148061235857508473ffffffffffffffffffffffffffffffffffffffff16612340856109e9565b73ffffffffffffffffffffffffffffffffffffffff16145b80612369575061236881866119c3565b5b9250505092915050565b6060600082036123ba576040518060400160405280600181526020017f300000000000000000000000000000000000000000000000000000000000000081525090506124ce565b600082905060005b600082146123ec5780806123d5906136a7565b915050600a826123e591906140c3565b91506123c2565b60008167ffffffffffffffff81111561240857612407613274565b5b6040519080825280601f01601f19166020018201604052801561243a5781602001600182028036833780820191505090505b5090505b600085146124c7576001826124539190613f54565b9150600a8561246291906140f4565b603061246e9190613f88565b60f81b81838151811061248457612483613781565b5b60200101907effffffffffffffffffffffffffffffffffffffffffffffffffffffffffffff1916908160001a905350600a856124c091906140c3565b945061243e565b8093505050505b919050565b600b600082815260200190815260200160002060009054906101000a900460ff1615612534576040517f08c379a000000000000000000000000000000000000000000000000000000000815260040161252b90614171565b60405180910390fd5b600780549050600860008381526020019081526020016000208190555060078190806001815401808255809150506001900390600052602060002001600090919091909150556001600b600083815260200190815260200160002060006101000a81548160ff02191690831515021790555050565b60006125b4826112d4565b90506125c1600083611ef2565b6125cb8183612761565b6125d482612bbc565b6003600083815260200190815260200160002060006101000a81549073ffffffffffffffffffffffffffffffffffffffff02191690556001600460008373ffffffffffffffffffffffffffffffffffffffff1673ffffffffffffffffffffffffffffffffffffffff168152602001908152602001600020600082825461265a9190613f54565b9250508190555081600073ffffffffffffffffffffffffffffffffffffffff168273ffffffffffffffffffffffffffffffffffffffff167fddf252ad1be2c89b69c2b068fc378daa952ba7f163c4a11628f55a4df523b3ef60405160405180910390a4818173ffffffffffffffffffffffffffffffffffffffff167fcc16f5dbb4873280815c1ee09dbd06736cffcc184412cf7a71a0fdb75d397ca560405160405180910390a35050565b61271184848484612a84565b612750576040517f08c379a000000000000000000000000000000000000000000000000000000000815260040161274790614203565b60405180910390fd5b61275b848484611c22565b50505050565b600073ffffffffffffffffffffffffffffffffffffffff168273ffffffffffffffffffffffffffffffffffffffff16036127d0576040517f08c379a00000000000000000000000000000000000000000000000000000000081526004016127c790614295565b60405180910390fd5b6000600960008473ffffffffffffffffffffffffffffffffffffffff1673ffffffffffffffffffffffffffffffffffffffff1681526020019081526020016000208054905090506000811161285a576040517f08c379a000000000000000000000000000000000000000000000000000000000815260040161285190614327565b60405180910390fd5b6000600a600084815260200190815260200160002054905082600960008673ffffffffffffffffffffffffffffffffffffffff1673ffffffffffffffffffffffffffffffffffffffff16815260200190815260200160002082815481106128c4576128c3613781565b5b90600052602060002001541461290f576040517f08c379a000000000000000000000000000000000000000000000000000000000815260040161290690614327565b60405180910390fd5b600060018361291e9190613f54565b9050808214612a01576000600960008773ffffffffffffffffffffffffffffffffffffffff1673ffffffffffffffffffffffffffffffffffffffff168152602001908152602001600020828154811061297a57612979613781565b5b9060005260206000200154905080600960008873ffffffffffffffffffffffffffffffffffffffff1673ffffffffffffffffffffffffffffffffffffffff16815260200190815260200160002084815481106129d9576129d8613781565b5b906000526020600020018190555082600a600083815260200190815260200160002081905550505b600960008673ffffffffffffffffffffffffffffffffffffffff1673ffffffffffffffffffffffffffffffffffffffff168152602001908152602001600020805480612a5057612a4f614347565b5b60019003818190600052602060002001600090559055600a6000858152602001908152602001600020600090555050505050565b6000808473ffffffffffffffffffffffffffffffffffffffff163b1115612baf578373ffffffffffffffffffffffffffffffffffffffff1663150b7a02338786866040518563ffffffff1660e01b8152600401612ae494939291906143cb565b6020604051808303816000875af1925050508015612b2057506040513d601f19601f82011682018060405250810190612b1d919061442c565b60015b612b5f576040517f08c379a0000000000000000000000000000000000000000000000000000000008152600401612b5690614203565b60405180910390fd5b63150b7a0260e01b7bffffffffffffffffffffffffffffffffffffffffffffffffffffffff1916817bffffffffffffffffffffffffffffffffffffffffffffffffffffffff191614915050612bb4565b600190505b949350505050565b6000600780549050905060008111612c09576040517f08c379a0000000000000000000000000000000000000000000000000000000008152600401612c00906144cb565b60405180910390fd5b600060086000848152602001908152602001600020549050818110612c63576040517f08c379a0000000000000000000000000000000000000000000000000000000008152600401612c5a906144cb565b60405180910390fd5b8260078281548110612c7857612c77613781565b5b906000526020600020015414612cc3576040517f08c379a0000000000000000000000000000000000000000000000000000000008152600401612cba906144cb565b60405180910390fd5b6000600183612cd29190613f54565b9050808214612d3b57600060078281548110612cf157612cf0613781565b5b906000526020600020015490508060078481548110612d1357612d12613781565b5b9060005260206000200181905550826008600083815260200190815260200160002081905550505b6007805480612d4d57612d4c614347565b5b60019003818190600052602060002001600090559055600860008581526020019081526020016000206000905550505050565b6000604051905090565b600080fd5b600080fd5b60007fffffffff0000000000000000000000000000000000000000000000000000000082169050919050565b612dc981612d94565b8114612dd457600080fd5b50565b600081359050612de681612dc0565b92915050565b600060208284031215612e0257612e01612d8a565b5b6000612e1084828501612dd7565b91505092915050565b60008115159050919050565b612e2e81612e19565b82525050565b6000602082019050612e496000830184612e25565b92915050565b600073ffffffffffffffffffffffffffffffffffffffff82169050919050565b6000612e7a82612e4f565b9050919050565b612e8a81612e6f565b8114612e9557600080fd5b50565b600081359050612ea781612e81565b92915050565b6000819050919050565b612ec081612ead565b8114612ecb57600080fd5b50565b600081359050612edd81612eb7565b92915050565b600080600060608486031215612efc57612efb612d8a565b5b6000612f0a86828701612e98565b9350506020612f1b86828701612e98565b9250506040612f2c86828701612ece565b9150509250925092565b600060208284031215612f4c57612f4b612d8a565b5b6000612f5a84828501612ece565b91505092915050565b612f6c81612ead565b82525050565b6000602082019050612f876000830184612f63565b92915050565b600081519050919050565b600082825260208201905092915050565b60005b83811015612fc7578082015181840152602081019050612fac565b60008484015250505050565b6000601f19601f8301169050919050565b6000612fef82612f8d565b612ff98185612f98565b9350613009818560208601612fa9565b61301281612fd3565b840191505092915050565b600060208201905081810360008301526130378184612fe4565b905092915050565b61304881612e6f565b82525050565b6000602082019050613063600083018461303f565b92915050565b600080604083850312156130805761307f612d8a565b5b600061308e85828601612e98565b925050602061309f85828601612ece565b9150509250929050565b6130b281612e19565b81146130bd57600080fd5b50565b6000813590506130cf816130a9565b92915050565b600080604083850312156130ec576130eb612d8a565b5b60006130fa85828601612e98565b925050602061310b858286016130c0565b9150509250929050565b6000806040838503121561312c5761312b612d8a565b5b600061313a85828601612ece565b925050602061314b85828601612e98565b9150509250929050565b60006020828403121561316b5761316a612d8a565b5b600061317984828501612e98565b91505092915050565b600080fd5b600080fd5b600080fd5b60008083601f8401126131a7576131a6613182565b5b8235905067ffffffffffffffff8111156131c4576131c3613187565b5b6020830191508360018202830111156131e0576131df61318c565b5b9250929050565b60008060008060006080868803121561320357613202612d8a565b5b600061321188828901612e98565b955050602061322288828901612e98565b945050604061323388828901612ece565b935050606086013567ffffffffffffffff81111561325457613253612d8f565b5b61326088828901613191565b92509250509295509295909350565b600080fd5b7f4e487b7100000000000000000000000000000000000000000000000000000000600052604160045260246000fd5b6132ac82612fd3565b810181811067ffffffffffffffff821117156132cb576132ca613274565b5b80604052505050565b60006132de612d80565b90506132ea82826132a3565b919050565b600067ffffffffffffffff82111561330a57613309613274565b5b61331382612fd3565b9050602081019050919050565b82818337600083830152505050565b600061334261333d846132ef565b6132d4565b90508281526020810184848401111561335e5761335d61326f565b5b613369848285613320565b509392505050565b600082601f83011261338657613385613182565b5b813561339684826020860161332f565b91505092915050565b600080600080608085870312156133b9576133b8612d8a565b5b60006133c787828801612e98565b94505060206133d887828801612e98565b93505060406133e987828801612ece565b925050606085013567ffffffffffffffff81111561340a57613409612d8f565b5b61341687828801613371565b91505092959194509250565b6000806040838503121561343957613438612d8a565b5b600061344785828601612e98565b925050602061345885828601612e98565b9150509250929050565b7f4e487b7100000000000000000000000000000000000000000000000000000000600052602260045260246000fd5b600060028204905060018216806134a957607f821691505b6020821081036134bc576134bb613462565b5b50919050565b7f4552433732313a20717565727920666f72206e6f6e6578697374656e7420746f60008201527f6b656e0000000000000000000000000000000000000000000000000000000000602082015250565b600061351e602383612f98565b9150613529826134c2565b604082019050919050565b6000602082019050818103600083015261354d81613511565b9050919050565b7f4552433732313a20617070726f76616c20746f2063757272656e74206f776e6560008201527f7200000000000000000000000000000000000000000000000000000000000000602082015250565b60006135b0602183612f98565b91506135bb82613554565b604082019050919050565b600060208201905081810360008301526135df816135a3565b9050919050565b7f4552433732313a20617070726f76652063616c6c6572206973206e6f74206f7760008201527f6e6572206e6f7220617070726f76656420666f7220616c6c0000000000000000602082015250565b6000613642603883612f98565b915061364d826135e6565b604082019050919050565b6000602082019050818103600083015261367181613635565b9050919050565b7f4e487b7100000000000000000000000000000000000000000000000000000000600052601160045260246000fd5b60006136b282612ead565b91507fffffffffffffffffffffffffffffffffffffffffffffffffffffffffffffffff82036136e4576136e3613678565b5b600182019050919050565b7f437573746f6d4552433732313a2061646420746f207a65726f2061646472657360008201527f7300000000000000000000000000000000000000000000000000000000000000602082015250565b600061374b602183612f98565b9150613756826136ef565b604082019050919050565b6000602082019050818103600083015261377a8161373e565b9050919050565b7f4e487b7100000000000000000000000000000000000000000000000000000000600052603260045260246000fd5b7f437573746f6d4552433732313a20746f6b656e20616c7265616479206164646560008201527f6400000000000000000000000000000000000000000000000000000000000000602082015250565b600061380c602183612f98565b9150613817826137b0565b604082019050919050565b6000602082019050818103600083015261383b816137ff565b9050919050565b7f5265656e7472616e637947756172643a207265656e7472616e742063616c6c00600082015250565b6000613878601f83612f98565b915061388382613842565b602082019050919050565b600060208201905081810360008301526138a78161386b565b9050919050565b7f4552433732313a207472616e736665722063616c6c6572206e6f74206f776e6560008201527f72206e6f7220617070726f766564000000000000000000000000000000000000602082015250565b600061390a602e83612f98565b9150613915826138ae565b604082019050919050565b60006020820190508181036000830152613939816138fd565b9050919050565b7f455243373231456e756d657261626c653a206f776e657220696e646578206f7560008201527f74206f6620626f756e6473000000000000000000000000000000000000000000602082015250565b600061399c602b83612f98565b91506139a782613940565b604082019050919050565b600060208201905081810360008301526139cb8161398f565b9050919050565b7f4f776e61626c653a2063616c6c6572206973206e6f7420746865206f776e6572600082015250565b6000613a08602083612f98565b9150613a13826139d2565b602082019050919050565b60006020820190508181036000830152613a37816139fb565b9050919050565b7f4552433732313a2063616c6c6572206973206e6f74206f776e6572206e6f722060008201527f617070726f766564000000000000000000000000000000000000000000000000602082015250565b6000613a9a602883612f98565b9150613aa582613a3e565b604082019050919050565b60006020820190508181036000830152613ac981613a8d565b9050919050565b7f455243373231456e756d657261626c653a20676c6f62616c20696e646578206f60008201527f7574206f6620626f756e64730000000000000000000000000000000000000000602082015250565b6000613b2c602c83612f98565b9150613b3782613ad0565b604082019050919050565b60006020820190508181036000830152613b5b81613b1f565b9050919050565b7f496e646578206f7574206f6620626f756e647300000000000000000000000000600082015250565b6000613b98601383612f98565b9150613ba382613b62565b602082019050919050565b60006020820190508181036000830152613bc781613b8b565b9050919050565b7f4552433732313a2062616c616e636520717565727920666f72207a65726f206160008201527f6464726573730000000000000000000000000000000000000000000000000000602082015250565b6000613c2a602683612f98565b9150613c3582613bce565b604082019050919050565b60006020820190508181036000830152613c5981613c1d565b9050919050565b7f4552433732313a20617070726f766520746f2063616c6c657200000000000000600082015250565b6000613c96601983612f98565b9150613ca182613c60565b602082019050919050565b60006020820190508181036000830152613cc581613c89565b9050919050565b600081905092915050565b60008190508160005260206000209050919050565b60008154613cf981613491565b613d038186613ccc565b94506001821660008114613d1e5760018114613d3357613d66565b60ff1983168652811515820286019350613d66565b613d3c85613cd7565b60005b83811015613d5e57815481890152600182019150602081019050613d3f565b838801955050505b50505092915050565b6000613d7a82612f8d565b613d848185613ccc565b9350613d94818560208601612fa9565b80840191505092915050565b6000613dac8285613cec565b9150613db88284613d6f565b91508190509392505050565b7f4f776e61626c653a206e6577206f776e657220697320746865207a65726f206160008201527f6464726573730000000000000000000000000000000000000000000000000000602082015250565b6000613e20602683612f98565b9150613e2b82613dc4565b604082019050919050565b60006020820190508181036000830152613e4f81613e13565b9050919050565b7f4552433732313a207472616e73666572206f6620746f6b656e2074686174206960008201527f73206e6f74206f776e0000000000000000000000000000000000000000000000602082015250565b6000613eb2602983612f98565b9150613ebd82613e56565b604082019050919050565b60006020820190508181036000830152613ee181613ea5565b9050919050565b7f4552433732313a207472616e7366657220746f207a65726f2061646472657373600082015250565b6000613f1e602083612f98565b9150613f2982613ee8565b602082019050919050565b60006020820190508181036000830152613f4d81613f11565b9050919050565b6000613f5f82612ead565b9150613f6a83612ead565b9250828203905081811115613f8257613f81613678565b5b92915050565b6000613f9382612ead565b9150613f9e83612ead565b9250828201905080821115613fb657613fb5613678565b5b92915050565b7f4552433732313a206d696e7420746f207a65726f206164647265737300000000600082015250565b6000613ff2601c83612f98565b9150613ffd82613fbc565b602082019050919050565b6000602082019050818103600083015261402181613fe5565b9050919050565b7f4552433732313a20746f6b656e20616c7265616479206d696e74656400000000600082015250565b600061405e601c83612f98565b915061406982614028565b602082019050919050565b6000602082019050818103600083015261408d81614051565b9050919050565b7f4e487b7100000000000000000000000000000000000000000000000000000000600052601260045260246000fd5b60006140ce82612ead565b91506140d983612ead565b9250826140e9576140e8614094565b5b828204905092915050565b60006140ff82612ead565b915061410a83612ead565b92508261411a57614119614094565b5b828206905092915050565b7f4552433732313a20746f6b656e20616c72656164792061646465640000000000600082015250565b600061415b601b83612f98565b915061416682614125565b602082019050919050565b6000602082019050818103600083015261418a8161414e565b9050919050565b7f4552433732313a207472616e7366657220746f206e6f6e20455243373231526560008201527f63656976657220696d706c656d656e7465720000000000000000000000000000602082015250565b60006141ed603283612f98565b91506141f882614191565b604082019050919050565b6000602082019050818103600083015261421c816141e0565b9050919050565b7f4552433732313a2072656d6f766520746f6b656e2066726f6d207a65726f206160008201527f6464726573730000000000000000000000000000000000000000000000000000602082015250565b600061427f602683612f98565b915061428a82614223565b604082019050919050565b600060208201905081810360008301526142ae81614272565b9050919050565b7f4552433732313a20746f6b656e206e6f7420666f756e6420696e20656e756d6560008201527f726174696f6e0000000000000000000000000000000000000000000000000000602082015250565b6000614311602683612f98565b915061431c826142b5565b604082019050919050565b6000602082019050818103600083015261434081614304565b9050919050565b7f4e487b7100000000000000000000000000000000000000000000000000000000600052603160045260246000fd5b600081519050919050565b600082825260208201905092915050565b600061439d82614376565b6143a78185614381565b93506143b7818560208601612fa9565b6143c081612fd3565b840191505092915050565b60006080820190506143e0600083018761303f565b6143ed602083018661303f565b6143fa6040830185612f63565b818103606083015261440c8184614392565b905095945050505050565b60008151905061442681612dc0565b92915050565b60006020828403121561444257614441612d8a565b5b600061445084828501614417565b91505092915050565b7f4552433732313a20746f6b656e206e6f7420666f756e6420696e20676c6f626160008201527f6c20656e756d65726174696f6e00000000000000000000000000000000000000602082015250565b60006144b5602d83612f98565b91506144c082614459565b604082019050919050565b600060208201905081810360008301526144e4816144a8565b905091905056fea2646970667358221220dd4d2bcc9b4e442b3e07a3a437dd3beab19df40b0b74b258304a7a39ae2f694264736f6c634300081c0033",
  "linkReferences": {},
  "deployedLinkReferences": {}
}