{
  "_format": "hh-sol-artifact-1",
  "contractName": "CustomERC721",
  "sourceName": "contracts/CustomERC721.sol",
  "abi": [
    {
      "inputs": [
        {
          "internalType": "string",
          "name": "name_",
          "type": "string"
        },
        {
          "internalType": "string",
          "name": "symbol_",
          "type": "string"
        }
      ],
      "stateMutability": "nonpayable",
      "type": "constructor"
    },
    {
      "anonymous": false,
      "inputs": [
        {
          "indexed": true,
          "internalType": "address",
          "name": "owner",
          "type": "address"
        },
        {
          "indexed": true,
          "internalType": "address",
          "name": "approved",
          "type": "address"
        },
        {
          "indexed": true,
          "internalType": "uint256",
          "name": "tokenId",
          "type": "uint256"
        }
      ],
      "name": "Approval",
      "type": "event"
    },
    {
      "anonymous": false,
      "inputs": [
        {
          "indexed": true,
          "internalType": "address",
          "name": "owner",
          "type": "address"
        },
        {
          "indexed": true,
          "internalType": "address",
          "name": "operator",
          "type": "address"
        },
        {
          "indexed": false,
          "internalType": "bool",
          "name": "approved",
          "type": "bool"
        }
      ],
      "name": "ApprovalForAll",
      "type": "event"
    },
    {
      "anonymous": false,
      "inputs": [
        {
          "indexed": true,
          "internalType": "address",
          "name": "from",
          "type": "address"
        },
        {
          "indexed": true,
          "internalType": "uint256",
          "name": "tokenId",
          "type": "uint256"
        }
      ],
      "name": "Burn",
      "type": "event"
    },
    {
      "anonymous": false,
      "inputs": [
        {
          "indexed": true,
          "internalType": "address",
          "name": "to",
          "type": "address"
        },
        {
          "indexed": true,
          "internalType": "uint256",
          "name": "tokenId",
          "type": "uint256"
        }
      ],
      "name": "Mint",
      "type": "event"
    },
    {
      "anonymous": false,
      "inputs": [
        {
          "indexed": true,
          "internalType": "address",
          "name": "previousOwner",
          "type": "address"
        },
        {
          "indexed": true,
          "internalType": "address",
          "name": "newOwner",
          "type": "address"
        }
      ],
      "name": "OwnershipTransferred",
      "type": "event"
    },
    {
      "anonymous": false,
      "inputs": [
        {
          "indexed": true,
          "internalType": "address",
          "name": "from",
          "type": "address"
        },
        {
          "indexed": true,
          "internalType": "address",
          "name": "to",
          "type": "address"
        },
        {
          "indexed": true,
          "internalType": "uint256",
          "name": "tokenId",
          "type": "uint256"
        }
      ],
      "name": "Transfer",
      "type": "event"
    },
    {
      "inputs": [
        {
          "internalType": "address",
          "name": "to",
          "type": "address"
        },
        {
          "internalType": "uint256",
          "name": "tokenId",
          "type": "uint256"
        }
      ],
      "name": "approve",
      "outputs": [],
      "stateMutability": "nonpayable",
      "type": "function"
    },
    {
      "inputs": [
        {
          "internalType": "address",
          "name": "ownerAddr",
          "type": "address"
        }
      ],
      "name": "balanceOf",
      "outputs": [
        {
          "internalType": "uint256",
          "name": "",
          "type": "uint256"
        }
      ],
      "stateMutability": "view",
      "type": "function"
    },
    {
      "inputs": [
        {
          "internalType": "uint256",
          "name": "tokenId",
          "type": "uint256"
        }
      ],
      "name": "burn",
      "outputs": [],
      "stateMutability": "nonpayable",
      "type": "function"
    },
    {
      "inputs": [
        {
          "internalType": "uint256",
          "name": "tokenId",
          "type": "uint256"
        }
      ],
      "name": "getApproved",
      "outputs": [
        {
          "internalType": "address",
          "name": "",
          "type": "address"
        }
      ],
      "stateMutability": "view",
      "type": "function"
    },
    {
      "inputs": [
        {
          "internalType": "address",
          "name": "ownerAddr",
          "type": "address"
        },
        {
          "internalType": "address",
          "name": "operator",
          "type": "address"
        }
      ],
      "name": "isApprovedForAll",
      "outputs": [
        {
          "internalType": "bool",
          "name": "",
          "type": "bool"
        }
      ],
      "stateMutability": "view",
      "type": "function"
    },
    {
      "inputs": [
        {
          "internalType": "address",
          "name": "to",
          "type": "address"
        },
        {
          "internalType": "uint256",
          "name": "tokenId",
          "type": "uint256"
        }
      ],
      "name": "mint",
      "outputs": [],
      "stateMutability": "nonpayable",
      "type": "function"
    },
    {
      "inputs": [],
      "name": "name",
      "outputs": [
        {
          "internalType": "string",
          "name": "",
          "type": "string"
        }
      ],
      "stateMutability": "view",
      "type": "function"
    },
    {
      "inputs": [],
      "name": "owner",
      "outputs": [
        {
          "internalType": "address",
          "name": "",
          "type": "address"
        }
      ],
      "stateMutability": "view",
      "type": "function"
    },
    {
      "inputs": [
        {
          "internalType": "uint256",
          "name": "tokenId",
          "type": "uint256"
        }
      ],
      "name": "ownerOf",
      "outputs": [
        {
          "internalType": "address",
          "name": "",
          "type": "address"
        }
      ],
      "stateMutability": "view",
      "type": "function"
    },
    {
      "inputs": [
        {
          "internalType": "address",
          "name": "from",
          "type": "address"
        },
        {
          "internalType": "address",
          "name": "to",
          "type": "address"
        },
        {
          "internalType": "uint256",
          "name": "tokenId",
          "type": "uint256"
        }
      ],
      "name": "safeTransferFrom",
      "outputs": [],
      "stateMutability": "nonpayable",
      "type": "function"
    },
    {
      "inputs": [
        {
          "internalType": "address",
          "name": "from",
          "type": "address"
        },
        {
          "internalType": "address",
          "name": "to",
          "type": "address"
        },
        {
          "internalType": "uint256",
          "name": "tokenId",
          "type": "uint256"
        },
        {
          "internalType": "bytes",
          "name": "data",
          "type": "bytes"
        }
      ],
      "name": "safeTransferFrom",
      "outputs": [],
      "stateMutability": "nonpayable",
      "type": "function"
    },
    {
      "inputs": [
        {
          "internalType": "address",
          "name": "operator",
          "type": "address"
        },
        {
          "internalType": "bool",
          "name": "approved",
          "type": "bool"
        }
      ],
      "name": "setApprovalForAll",
      "outputs": [],
      "stateMutability": "nonpayable",
      "type": "function"
    },
    {
      "inputs": [
        {
          "internalType": "bytes4",
          "name": "interfaceId",
          "type": "bytes4"
        }
      ],
      "name": "supportsInterface",
      "outputs": [
        {
          "internalType": "bool",
          "name": "",
          "type": "bool"
        }
      ],
      "stateMutability": "pure",
      "type": "function"
    },
    {
      "inputs": [],
      "name": "symbol",
      "outputs": [
        {
          "internalType": "string",
          "name": "",
          "type": "string"
        }
      ],
      "stateMutability": "view",
      "type": "function"
    },
    {
      "inputs": [
        {
          "internalType": "uint256",
          "name": "index",
          "type": "uint256"
        }
      ],
      "name": "tokenByIndex",
      "outputs": [
        {
          "internalType": "uint256",
          "name": "",
          "type": "uint256"
        }
      ],
      "stateMutability": "view",
      "type": "function"
    },
    {
      "inputs": [
        {
          "internalType": "address",
          "name": "ownerAddr",
          "type": "address"
        },
        {
          "internalType": "uint256",
          "name": "index",
          "type": "uint256"
        }
      ],
      "name": "tokenOfOwnerByIndex",
      "outputs": [
        {
          "internalType": "uint256",
          "name": "",
          "type": "uint256"
        }
      ],
      "stateMutability": "view",
      "type": "function"
    },
    {
      "inputs": [
        {
          "internalType": "uint256",
          "name": "tokenId",
          "type": "uint256"
        }
      ],
      "name": "tokenURI",
      "outputs": [
        {
          "internalType": "string",
          "name": "",
          "type": "string"
        }
      ],
      "stateMutability": "view",
      "type": "function"
    },
    {
      "inputs": [],
      "name": "totalSupply",
      "outputs": [
        {
          "internalType": "uint256",
          "name": "",
          "type": "uint256"
        }
      ],
      "stateMutability": "view",
      "type": "function"
    },
    {
      "inputs": [
        {
          "internalType": "address",
          "name": "from",
          "type": "address"
        },
        {
          "internalType": "address",
          "name": "to",
          "type": "address"
        },
        {
          "internalType": "uint256",
          "name": "tokenId",
          "type": "uint256"
        }
      ],
      "name": "transferFrom",
      "outputs": [],
      "stateMutability": "nonpayable",
      "type": "function"
    },
    {
      "inputs": [
        {
          "internalType": "address",
          "name": "newOwner",
          "type": "address"
        }
      ],
      "name": "transferOwnership",
      "outputs": [],
      "stateMutability": "nonpayable",
      "type": "function"
    }
  ],
  "bytecode": "0x608060405234801561001057600080fd5b50604051613daa380380613daa83398181016040528101906100329190610236565b816000908161004191906104cf565b50806001908161005191906104cf565b50604051806020016040528060008152506002908161007091906104cf565b5033600c60006101000a81548173ffffffffffffffffffffffffffffffffffffffff021916908373ffffffffffffffffffffffffffffffffffffffff1602179055506001600d8190555050506105a1565b6000604051905090565b600080fd5b600080fd5b600080fd5b600080fd5b6000601f19601f8301169050919050565b7f4e487b7100000000000000000000000000000000000000000000000000000000600052604160045260246000fd5b610128826100df565b810181811067ffffffffffffffff82111715610147576101466100f0565b5b80604052505050565b600061015a6100c1565b9050610166828261011f565b919050565b600067ffffffffffffffff821115610186576101856100f0565b5b61018f826100df565b9050602081019050919050565b60005b838110156101ba57808201518184015260208101905061019f565b60008484015250505050565b60006101d96101d48461016b565b610150565b9050828152602081018484840111156101f5576101f46100da565b5b61020084828561019c565b509392505050565b600082601f83011261021d5761021c6100d5565b5b815161022d8482602086016101c6565b91505092915050565b6000806040838503121561024d5761024c6100cb565b5b600083015167ffffffffffffffff81111561026b5761026a6100d0565b5b61027785828601610208565b925050602083015167ffffffffffffffff811115610298576102976100d0565b5b6102a485828601610208565b9150509250929050565b600081519050919050565b7f4e487b7100000000000000000000000000000000000000000000000000000000600052602260045260246000fd5b6000600282049050600182168061030057607f821691505b602082108103610313576103126102b9565b5b50919050565b60008190508160005260206000209050919050565b60006020601f8301049050919050565b600082821b905092915050565b60006008830261037b7fffffffffffffffffffffffffffffffffffffffffffffffffffffffffffffffff8261033e565b610385868361033e565b95508019841693508086168417925050509392505050565b6000819050919050565b6000819050919050565b60006103cc6103c76103c28461039d565b6103a7565b61039d565b9050919050565b6000819050919050565b6103e6836103b1565b6103fa6103f2826103d3565b84845461034b565b825550505050565b600090565b61040f610402565b61041a8184846103dd565b505050565b5b8181101561043e57610433600082610407565b600181019050610420565b5050565b601f8211156104835761045481610319565b61045d8461032e565b8101602085101561046c578190505b6104806104788561032e565b83018261041f565b50505b505050565b600082821c905092915050565b60006104a660001984600802610488565b1980831691505092915050565b60006104bf8383610495565b9150826002028217905092915050565b6104d8826102ae565b67ffffffffffffffff8111156104f1576104f06100f0565b5b6104fb82546102e8565b610506828285610442565b600060209050601f8311600181146105395760008415610527578287015190505b61053185826104b3565b865550610599565b601f19841661054786610319565b60005b8281101561056f5784890151825560018201915060208501945060208101905061054a565b8683101561058c5784890151610588601f891682610495565b8355505b6001600288020188555050505b505050505050565b6137fa806105b06000396000f3fe608060405234801561001057600080fd5b506004361061012c5760003560e01c80634f6ccce7116100ad578063a22cb46511610071578063a22cb46514610355578063b88d4fde14610371578063c87b56dd1461038d578063e985e9c5146103bd578063f2fde38b146103ed5761012c565b80634f6ccce7146102895780636352211e146102b957806370a08231146102e95780638da5cb5b1461031957806395d89b41146103375761012c565b806323b872dd116100f457806323b872dd146101e95780632f745c591461020557806340c10f191461023557806342842e0e1461025157806342966c681461026d5761012c565b806301ffc9a71461013157806306fdde0314610161578063081812fc1461017f578063095ea7b3146101af57806318160ddd146101cb575b600080fd5b61014b6004803603810190610146919061237d565b610409565b60405161015891906123c5565b60405180910390f35b61016961049b565b6040516101769190612470565b60405180910390f35b610199600480360381019061019491906124c8565b61052d565b6040516101a69190612536565b60405180910390f35b6101c960048036038101906101c4919061257d565b6105b4565b005b6101d3610707565b6040516101e091906125cc565b60405180910390f35b61020360048036038101906101fe91906125e7565b610714565b005b61021f600480360381019061021a919061257d565b6107c2565b60405161022c91906125cc565b60405180910390f35b61024f600480360381019061024a919061257d565b610872565b005b61026b600480360381019061026691906125e7565b610910565b005b610287600480360381019061028291906124c8565b610985565b005b6102a3600480360381019061029e91906124c8565b610a5c565b6040516102b091906125cc565b60405180910390f35b6102d360048036038101906102ce91906124c8565b610acd565b6040516102e09190612536565b60405180910390f35b61030360048036038101906102fe919061263a565b610b54565b60405161031091906125cc565b60405180910390f35b610321610c0b565b60405161032e9190612536565b60405180910390f35b61033f610c35565b60405161034c9190612470565b60405180910390f35b61036f600480360381019061036a9190612693565b610cc7565b005b61038b60048036038101906103869190612808565b610e32565b005b6103a760048036038101906103a291906124c8565b610ee2565b6040516103b49190612470565b60405180910390f35b6103d760048036038101906103d2919061288b565b610f60565b6040516103e491906123c5565b60405180910390f35b6104076004803603810190610402919061263a565b610ff4565b005b60006380ac58cd60e01b827bffffffffffffffffffffffffffffffffffffffffffffffffffffffff191614806104645750635b5e139f60e01b827bffffffffffffffffffffffffffffffffffffffffffffffffffffffff1916145b80610494575063780e9d6360e01b827bffffffffffffffffffffffffffffffffffffffffffffffffffffffff1916145b9050919050565b6060600080546104aa906128fa565b80601f01602080910402602001604051908101604052809291908181526020018280546104d6906128fa565b80156105235780601f106104f857610100808354040283529160200191610523565b820191906000526020600020905b81548152906001019060200180831161050657829003601f168201915b5050505050905090565b600081610539816111b3565b610578576040517f08c379a000000000000000000000000000000000000000000000000000000000815260040161056f9061299d565b60405180910390fd5b6005600084815260200190815260200160002060009054906101000a900473ffffffffffffffffffffffffffffffffffffffff16915050919050565b806105be816111b3565b6105fd576040517f08c379a00000000000000000000000000000000000000000000000000000000081526004016105f49061299d565b60405180910390fd5b600061060883610acd565b90508073ffffffffffffffffffffffffffffffffffffffff168473ffffffffffffffffffffffffffffffffffffffff1603610678576040517f08c379a000000000000000000000000000000000000000000000000000000000815260040161066f90612a2f565b60405180910390fd5b8073ffffffffffffffffffffffffffffffffffffffff163373ffffffffffffffffffffffffffffffffffffffff1614806106b857506106b78133610f60565b5b6106f7576040517f08c379a00000000000000000000000000000000000000000000000000000000081526004016106ee90612ac1565b60405180910390fd5b610701848461121f565b50505050565b6000600780549050905090565b6002600d5403610759576040517f08c379a000000000000000000000000000000000000000000000000000000000815260040161075090612b2d565b60405180910390fd5b6002600d8190555061076b33826112d8565b6107aa576040517f08c379a00000000000000000000000000000000000000000000000000000000081526004016107a190612bbf565b60405180910390fd5b6107b58383836113b8565b6001600d81905550505050565b60006107cd83610b54565b821061080e576040517f08c379a000000000000000000000000000000000000000000000000000000000815260040161080590612c51565b60405180910390fd5b600960008473ffffffffffffffffffffffffffffffffffffffff1673ffffffffffffffffffffffffffffffffffffffff168152602001908152602001600020828154811061085f5761085e612c71565b5b9060005260206000200154905092915050565b600c60009054906101000a900473ffffffffffffffffffffffffffffffffffffffff1673ffffffffffffffffffffffffffffffffffffffff163373ffffffffffffffffffffffffffffffffffffffff1614610902576040517f08c379a00000000000000000000000000000000000000000000000000000000081526004016108f990612cec565b60405180910390fd5b61090c828261161c565b5050565b6002600d5403610955576040517f08c379a000000000000000000000000000000000000000000000000000000000815260040161094c90612b2d565b60405180910390fd5b6002600d8190555061097883838360405180602001604052806000815250610e32565b6001600d81905550505050565b600061099082610acd565b90508073ffffffffffffffffffffffffffffffffffffffff163373ffffffffffffffffffffffffffffffffffffffff1614806109d257506109d18133610f60565b5b80610a1057503373ffffffffffffffffffffffffffffffffffffffff166109f88361052d565b73ffffffffffffffffffffffffffffffffffffffff16145b610a4f576040517f08c379a0000000000000000000000000000000000000000000000000000000008152600401610a4690612d7e565b60405180910390fd5b610a5882611834565b5050565b6000610a66610707565b8210610aa7576040517f08c379a0000000000000000000000000000000000000000000000000000000008152600401610a9e90612e10565b60405180910390fd5b60078281548110610abb57610aba612c71565b5b90600052602060002001549050919050565b600081610ad9816111b3565b610b18576040517f08c379a0000000000000000000000000000000000000000000000000000000008152600401610b0f9061299d565b60405180910390fd5b6003600084815260200190815260200160002060009054906101000a900473ffffffffffffffffffffffffffffffffffffffff16915050919050565b60008073ffffffffffffffffffffffffffffffffffffffff168273ffffffffffffffffffffffffffffffffffffffff1603610bc4576040517f08c379a0000000000000000000000000000000000000000000000000000000008152600401610bbb90612ea2565b60405180910390fd5b600460008373ffffffffffffffffffffffffffffffffffffffff1673ffffffffffffffffffffffffffffffffffffffff168152602001908152602001600020549050919050565b6000600c60009054906101000a900473ffffffffffffffffffffffffffffffffffffffff16905090565b606060018054610c44906128fa565b80601f0160208091040260200160405190810160405280929190818152602001828054610c70906128fa565b8015610cbd5780601f10610c9257610100808354040283529160200191610cbd565b820191906000526020600020905b815481529060010190602001808311610ca057829003601f168201915b5050505050905090565b3373ffffffffffffffffffffffffffffffffffffffff168273ffffffffffffffffffffffffffffffffffffffff1603610d35576040517f08c379a0000000000000000000000000000000000000000000000000000000008152600401610d2c90612f0e565b60405180910390fd5b80600660003373ffffffffffffffffffffffffffffffffffffffff1673ffffffffffffffffffffffffffffffffffffffff16815260200190815260200160002060008473ffffffffffffffffffffffffffffffffffffffff1673ffffffffffffffffffffffffffffffffffffffff16815260200190815260200160002060006101000a81548160ff0219169083151502179055508173ffffffffffffffffffffffffffffffffffffffff163373ffffffffffffffffffffffffffffffffffffffff167f17307eab39ab6107e8899845ad3d59bd9653f200f220920489ca2b5937696c3183604051610e2691906123c5565b60405180910390a35050565b6002600d5403610e77576040517f08c379a0000000000000000000000000000000000000000000000000000000008152600401610e6e90612b2d565b60405180910390fd5b6002600d81905550610e8933836112d8565b610ec8576040517f08c379a0000000000000000000000000000000000000000000000000000000008152600401610ebf90612bbf565b60405180910390fd5b610ed484848484611990565b6001600d8190555050505050565b606081610eee816111b3565b610f2d576040517f08c379a0000000000000000000000000000000000000000000000000000000008152600401610f249061299d565b60405180910390fd5b6002610f38846119ec565b604051602001610f49929190613002565b604051602081830303815290604052915050919050565b6000600660008473ffffffffffffffffffffffffffffffffffffffff1673ffffffffffffffffffffffffffffffffffffffff16815260200190815260200160002060008373ffffffffffffffffffffffffffffffffffffffff1673ffffffffffffffffffffffffffffffffffffffff16815260200190815260200160002060009054906101000a900460ff16905092915050565b600c60009054906101000a900473ffffffffffffffffffffffffffffffffffffffff1673ffffffffffffffffffffffffffffffffffffffff163373ffffffffffffffffffffffffffffffffffffffff1614611084576040517f08c379a000000000000000000000000000000000000000000000000000000000815260040161107b90612cec565b60405180910390fd5b600073ffffffffffffffffffffffffffffffffffffffff168173ffffffffffffffffffffffffffffffffffffffff16036110f3576040517f08c379a00000000000000000000000000000000000000000000000000000000081526004016110ea90613098565b60405180910390fd5b8073ffffffffffffffffffffffffffffffffffffffff16600c60009054906101000a900473ffffffffffffffffffffffffffffffffffffffff1673ffffffffffffffffffffffffffffffffffffffff167f8be0079c531659141344cd1fd0a4f28419497f9722a3daafe3b4186f6b6457e060405160405180910390a380600c60006101000a81548173ffffffffffffffffffffffffffffffffffffffff021916908373ffffffffffffffffffffffffffffffffffffffff16021790555050565b60008073ffffffffffffffffffffffffffffffffffffffff166003600084815260200190815260200160002060009054906101000a900473ffffffffffffffffffffffffffffffffffffffff1673ffffffffffffffffffffffffffffffffffffffff1614159050919050565b816005600083815260200190815260200160002060006101000a81548173ffffffffffffffffffffffffffffffffffffffff021916908373ffffffffffffffffffffffffffffffffffffffff160217905550808273ffffffffffffffffffffffffffffffffffffffff1661129283610acd565b73ffffffffffffffffffffffffffffffffffffffff167f8c5be1e5ebec7d5bd14f71427d1e84f3dd0314c0f7b2291e5b200ac8c7c3b92560405160405180910390a45050565b6000816112e4816111b3565b611323576040517f08c379a000000000000000000000000000000000000000000000000000000000815260040161131a9061299d565b60405180910390fd5b600061132e84610acd565b90508073ffffffffffffffffffffffffffffffffffffffff168573ffffffffffffffffffffffffffffffffffffffff16148061139d57508473ffffffffffffffffffffffffffffffffffffffff166113858561052d565b73ffffffffffffffffffffffffffffffffffffffff16145b806113ae57506113ad8186610f60565b5b9250505092915050565b8273ffffffffffffffffffffffffffffffffffffffff166113d882610acd565b73ffffffffffffffffffffffffffffffffffffffff161461142e576040517f08c379a00000000000000000000000000000000000000000000000000000000081526004016114259061312a565b60405180910390fd5b600073ffffffffffffffffffffffffffffffffffffffff168273ffffffffffffffffffffffffffffffffffffffff160361149d576040517f08c379a000000000000000000000000000000000000000000000000000000000815260040161149490613196565b60405180910390fd5b6114a860008261121f565b6114b28382611b4c565b6001600460008573ffffffffffffffffffffffffffffffffffffffff1673ffffffffffffffffffffffffffffffffffffffff168152602001908152602001600020600082825461150291906131e5565b92505081905550816003600083815260200190815260200160002060006101000a81548173ffffffffffffffffffffffffffffffffffffffff021916908373ffffffffffffffffffffffffffffffffffffffff1602179055506001600460008473ffffffffffffffffffffffffffffffffffffffff1673ffffffffffffffffffffffffffffffffffffffff16815260200190815260200160002060008282546115ab9190613219565b925050819055506115bc8282611e6f565b808273ffffffffffffffffffffffffffffffffffffffff168473ffffffffffffffffffffffffffffffffffffffff167fddf252ad1be2c89b69c2b068fc378daa952ba7f163c4a11628f55a4df523b3ef60405160405180910390a4505050565b600073ffffffffffffffffffffffffffffffffffffffff168273ffffffffffffffffffffffffffffffffffffffff160361168b576040517f08c379a000000000000000000000000000000000000000000000000000000000815260040161168290613299565b60405180910390fd5b611694816111b3565b156116d4576040517f08c379a00000000000000000000000000000000000000000000000000000000081526004016116cb90613305565b60405180910390fd5b6001600460008473ffffffffffffffffffffffffffffffffffffffff1673ffffffffffffffffffffffffffffffffffffffff16815260200190815260200160002060008282546117249190613219565b92505081905550816003600083815260200190815260200160002060006101000a81548173ffffffffffffffffffffffffffffffffffffffff021916908373ffffffffffffffffffffffffffffffffffffffff1602179055506117878282611e6f565b61179081611f3f565b808273ffffffffffffffffffffffffffffffffffffffff16600073ffffffffffffffffffffffffffffffffffffffff167fddf252ad1be2c89b69c2b068fc378daa952ba7f163c4a11628f55a4df523b3ef60405160405180910390a4808273ffffffffffffffffffffffffffffffffffffffff167f0f6798a560793a54c3bcfe86a93cde1e73087d944c0ea20544137d412139688560405160405180910390a35050565b600061183f82610acd565b905061184c60008361121f565b6118568183611b4c565b61185f82612015565b6003600083815260200190815260200160002060006101000a81549073ffffffffffffffffffffffffffffffffffffffff02191690556001600460008373ffffffffffffffffffffffffffffffffffffffff1673ffffffffffffffffffffffffffffffffffffffff16815260200190815260200160002060008282546118e591906131e5565b9250508190555081600073ffffffffffffffffffffffffffffffffffffffff168273ffffffffffffffffffffffffffffffffffffffff167fddf252ad1be2c89b69c2b068fc378daa952ba7f163c4a11628f55a4df523b3ef60405160405180910390a4818173ffffffffffffffffffffffffffffffffffffffff167fcc16f5dbb4873280815c1ee09dbd06736cffcc184412cf7a71a0fdb75d397ca560405160405180910390a35050565b61199c848484846121d9565b6119db576040517f08c379a00000000000000000000000000000000000000000000000000000000081526004016119d290613397565b60405180910390fd5b6119e68484846113b8565b50505050565b606060008203611a33576040518060400160405280600181526020017f30000000000000000000000000000000000000000000000000000000000000008152509050611b47565b600082905060005b60008214611a65578080611a4e906133b7565b915050600a82611a5e919061342e565b9150611a3b565b60008167ffffffffffffffff811115611a8157611a806126dd565b5b6040519080825280601f01601f191660200182016040528015611ab35781602001600182028036833780820191505090505b5090505b60008514611b4057600182611acc91906131e5565b9150600a85611adb919061345f565b6030611ae79190613219565b60f81b818381518110611afd57611afc612c71565b5b60200101907effffffffffffffffffffffffffffffffffffffffffffffffffffffffffffff1916908160001a905350600a85611b39919061342e565b9450611ab7565b8093505050505b919050565b600073ffffffffffffffffffffffffffffffffffffffff168273ffffffffffffffffffffffffffffffffffffffff1603611bbb576040517f08c379a0000000000000000000000000000000000000000000000000000000008152600401611bb290613502565b60405180910390fd5b6000600960008473ffffffffffffffffffffffffffffffffffffffff1673ffffffffffffffffffffffffffffffffffffffff16815260200190815260200160002080549050905060008111611c45576040517f08c379a0000000000000000000000000000000000000000000000000000000008152600401611c3c90613594565b60405180910390fd5b6000600a600084815260200190815260200160002054905082600960008673ffffffffffffffffffffffffffffffffffffffff1673ffffffffffffffffffffffffffffffffffffffff1681526020019081526020016000208281548110611caf57611cae612c71565b5b906000526020600020015414611cfa576040517f08c379a0000000000000000000000000000000000000000000000000000000008152600401611cf190613594565b60405180910390fd5b6000600183611d0991906131e5565b9050808214611dec576000600960008773ffffffffffffffffffffffffffffffffffffffff1673ffffffffffffffffffffffffffffffffffffffff1681526020019081526020016000208281548110611d6557611d64612c71565b5b9060005260206000200154905080600960008873ffffffffffffffffffffffffffffffffffffffff1673ffffffffffffffffffffffffffffffffffffffff1681526020019081526020016000208481548110611dc457611dc3612c71565b5b906000526020600020018190555082600a600083815260200190815260200160002081905550505b600960008673ffffffffffffffffffffffffffffffffffffffff1673ffffffffffffffffffffffffffffffffffffffff168152602001908152602001600020805480611e3b57611e3a6135b4565b5b60019003818190600052602060002001600090559055600a6000858152602001908152602001600020600090555050505050565b600960008373ffffffffffffffffffffffffffffffffffffffff1673ffffffffffffffffffffffffffffffffffffffff1681526020019081526020016000208190806001815401808255809150506001900390600052602060002001600090919091909150556001600960008473ffffffffffffffffffffffffffffffffffffffff1673ffffffffffffffffffffffffffffffffffffffff16815260200190815260200160002080549050611f2491906131e5565b600a6000838152602001908152602001600020819055505050565b600b600082815260200190815260200160002060009054906101000a900460ff1615611fa0576040517f08c379a0000000000000000000000000000000000000000000000000000000008152600401611f979061362f565b60405180910390fd5b600780549050600860008381526020019081526020016000208190555060078190806001815401808255809150506001900390600052602060002001600090919091909150556001600b600083815260200190815260200160002060006101000a81548160ff02191690831515021790555050565b6000600780549050905060008111612062576040517f08c379a0000000000000000000000000000000000000000000000000000000008152600401612059906136c1565b60405180910390fd5b6000600860008481526020019081526020016000205490508181106120bc576040517f08c379a00000000000000000000000000000000000000000000000000000000081526004016120b3906136c1565b60405180910390fd5b82600782815481106120d1576120d0612c71565b5b90600052602060002001541461211c576040517f08c379a0000000000000000000000000000000000000000000000000000000008152600401612113906136c1565b60405180910390fd5b600060018361212b91906131e5565b90508082146121945760006007828154811061214a57612149612c71565b5b90600052602060002001549050806007848154811061216c5761216b612c71565b5b9060005260206000200181905550826008600083815260200190815260200160002081905550505b60078054806121a6576121a56135b4565b5b60019003818190600052602060002001600090559055600860008581526020019081526020016000206000905550505050565b6000808473ffffffffffffffffffffffffffffffffffffffff163b1115612304578373ffffffffffffffffffffffffffffffffffffffff1663150b7a02338786866040518563ffffffff1660e01b81526004016122399493929190613736565b6020604051808303816000875af192505050801561227557506040513d601f19601f820116820180604052508101906122729190613797565b60015b6122b4576040517f08c379a00000000000000000000000000000000000000000000000000000000081526004016122ab90613397565b60405180910390fd5b63150b7a0260e01b7bffffffffffffffffffffffffffffffffffffffffffffffffffffffff1916817bffffffffffffffffffffffffffffffffffffffffffffffffffffffff191614915050612309565b600190505b949350505050565b6000604051905090565b600080fd5b600080fd5b60007fffffffff0000000000000000000000000000000000000000000000000000000082169050919050565b61235a81612325565b811461236557600080fd5b50565b60008135905061237781612351565b92915050565b6000602082840312156123935761239261231b565b5b60006123a184828501612368565b91505092915050565b60008115159050919050565b6123bf816123aa565b82525050565b60006020820190506123da60008301846123b6565b92915050565b600081519050919050565b600082825260208201905092915050565b60005b8381101561241a5780820151818401526020810190506123ff565b60008484015250505050565b6000601f19601f8301169050919050565b6000612442826123e0565b61244c81856123eb565b935061245c8185602086016123fc565b61246581612426565b840191505092915050565b6000602082019050818103600083015261248a8184612437565b905092915050565b6000819050919050565b6124a581612492565b81146124b057600080fd5b50565b6000813590506124c28161249c565b92915050565b6000602082840312156124de576124dd61231b565b5b60006124ec848285016124b3565b91505092915050565b600073ffffffffffffffffffffffffffffffffffffffff82169050919050565b6000612520826124f5565b9050919050565b61253081612515565b82525050565b600060208201905061254b6000830184612527565b92915050565b61255a81612515565b811461256557600080fd5b50565b60008135905061257781612551565b92915050565b600080604083850312156125945761259361231b565b5b60006125a285828601612568565b92505060206125b3858286016124b3565b9150509250929050565b6125c681612492565b82525050565b60006020820190506125e160008301846125bd565b92915050565b600080600060608486031215612600576125ff61231b565b5b600061260e86828701612568565b935050602061261f86828701612568565b9250506040612630868287016124b3565b9150509250925092565b6000602082840312156126505761264f61231b565b5b600061265e84828501612568565b91505092915050565b612670816123aa565b811461267b57600080fd5b50565b60008135905061268d81612667565b92915050565b600080604083850312156126aa576126a961231b565b5b60006126b885828601612568565b92505060206126c98582860161267e565b9150509250929050565b600080fd5b600080fd5b7f4e487b7100000000000000000000000000000000000000000000000000000000600052604160045260246000fd5b61271582612426565b810181811067ffffffffffffffff82111715612734576127336126dd565b5b80604052505050565b6000612747612311565b9050612753828261270c565b919050565b600067ffffffffffffffff821115612773576127726126dd565b5b61277c82612426565b9050602081019050919050565b82818337600083830152505050565b60006127ab6127a684612758565b61273d565b9050828152602081018484840111156127c7576127c66126d8565b5b6127d2848285612789565b509392505050565b600082601f8301126127ef576127ee6126d3565b5b81356127ff848260208601612798565b91505092915050565b600080600080608085870312156128225761282161231b565b5b600061283087828801612568565b945050602061284187828801612568565b9350506040612852878288016124b3565b925050606085013567ffffffffffffffff81111561287357612872612320565b5b61287f878288016127da565b91505092959194509250565b600080604083850312156128a2576128a161231b565b5b60006128b085828601612568565b92505060206128c185828601612568565b9150509250929050565b7f4e487b7100000000000000000000000000000000000000000000000000000000600052602260045260246000fd5b6000600282049050600182168061291257607f821691505b602082108103612925576129246128cb565b5b50919050565b7f4552433732313a20717565727920666f72206e6f6e6578697374656e7420746f60008201527f6b656e0000000000000000000000000000000000000000000000000000000000602082015250565b60006129876023836123eb565b91506129928261292b565b604082019050919050565b600060208201905081810360008301526129b68161297a565b9050919050565b7f4552433732313a20617070726f76616c20746f2063757272656e74206f776e6560008201527f7200000000000000000000000000000000000000000000000000000000000000602082015250565b6000612a196021836123eb565b9150612a24826129bd565b604082019050919050565b60006020820190508181036000830152612a4881612a0c565b9050919050565b7f4552433732313a20617070726f76652063616c6c6572206973206e6f74206f7760008201527f6e6572206e6f7220617070726f76656420666f7220616c6c0000000000000000602082015250565b6000612aab6038836123eb565b9150612ab682612a4f565b604082019050919050565b60006020820190508181036000830152612ada81612a9e565b9050919050565b7f5265656e7472616e637947756172643a207265656e7472616e742063616c6c00600082015250565b6000612b17601f836123eb565b9150612b2282612ae1565b602082019050919050565b60006020820190508181036000830152612b4681612b0a565b9050919050565b7f4552433732313a207472616e736665722063616c6c6572206e6f74206f776e6560008201527f72206e6f7220617070726f766564000000000000000000000000000000000000602082015250565b6000612ba9602e836123eb565b9150612bb482612b4d565b604082019050919050565b60006020820190508181036000830152612bd881612b9c565b9050919050565b7f455243373231456e756d657261626c653a206f776e657220696e646578206f7560008201527f74206f6620626f756e6473000000000000000000000000000000000000000000602082015250565b6000612c3b602b836123eb565b9150612c4682612bdf565b604082019050919050565b60006020820190508181036000830152612c6a81612c2e565b9050919050565b7f4e487b7100000000000000000000000000000000000000000000000000000000600052603260045260246000fd5b7f4f776e61626c653a2063616c6c6572206973206e6f7420746865206f776e6572600082015250565b6000612cd66020836123eb565b9150612ce182612ca0565b602082019050919050565b60006020820190508181036000830152612d0581612cc9565b9050919050565b7f4552433732313a2063616c6c6572206973206e6f74206f776e6572206e6f722060008201527f617070726f766564000000000000000000000000000000000000000000000000602082015250565b6000612d686028836123eb565b9150612d7382612d0c565b604082019050919050565b60006020820190508181036000830152612d9781612d5b565b9050919050565b7f455243373231456e756d657261626c653a20676c6f62616c20696e646578206f60008201527f7574206f6620626f756e64730000000000000000000000000000000000000000602082015250565b6000612dfa602c836123eb565b9150612e0582612d9e565b604082019050919050565b60006020820190508181036000830152612e2981612ded565b9050919050565b7f4552433732313a2062616c616e636520717565727920666f72207a65726f206160008201527f6464726573730000000000000000000000000000000000000000000000000000602082015250565b6000612e8c6026836123eb565b9150612e9782612e30565b604082019050919050565b60006020820190508181036000830152612ebb81612e7f565b9050919050565b7f4552433732313a20617070726f766520746f2063616c6c657200000000000000600082015250565b6000612ef86019836123eb565b9150612f0382612ec2565b602082019050919050565b60006020820190508181036000830152612f2781612eeb565b9050919050565b600081905092915050565b60008190508160005260206000209050919050565b60008154612f5b816128fa565b612f658186612f2e565b94506001821660008114612f805760018114612f9557612fc8565b60ff1983168652811515820286019350612fc8565b612f9e85612f39565b60005b83811015612fc057815481890152600182019150602081019050612fa1565b838801955050505b50505092915050565b6000612fdc826123e0565b612fe68185612f2e565b9350612ff68185602086016123fc565b80840191505092915050565b600061300e8285612f4e565b915061301a8284612fd1565b91508190509392505050565b7f4f776e61626c653a206e6577206f776e657220697320746865207a65726f206160008201527f6464726573730000000000000000000000000000000000000000000000000000602082015250565b60006130826026836123eb565b915061308d82613026565b604082019050919050565b600060208201905081810360008301526130b181613075565b9050919050565b7f4552433732313a207472616e73666572206f6620746f6b656e2074686174206960008201527f73206e6f74206f776e0000000000000000000000000000000000000000000000602082015250565b60006131146029836123eb565b915061311f826130b8565b604082019050919050565b6000602082019050818103600083015261314381613107565b9050919050565b7f4552433732313a207472616e7366657220746f207a65726f2061646472657373600082015250565b60006131806020836123eb565b915061318b8261314a565b602082019050919050565b600060208201905081810360008301526131af81613173565b9050919050565b7f4e487b7100000000000000000000000000000000000000000000000000000000600052601160045260246000fd5b60006131f082612492565b91506131fb83612492565b9250828203905081811115613213576132126131b6565b5b92915050565b600061322482612492565b915061322f83612492565b9250828201905080821115613247576132466131b6565b5b92915050565b7f4552433732313a206d696e7420746f207a65726f206164647265737300000000600082015250565b6000613283601c836123eb565b915061328e8261324d565b602082019050919050565b600060208201905081810360008301526132b281613276565b9050919050565b7f4552433732313a20746f6b656e20616c7265616479206d696e74656400000000600082015250565b60006132ef601c836123eb565b91506132fa826132b9565b602082019050919050565b6000602082019050818103600083015261331e816132e2565b9050919050565b7f4552433732313a207472616e7366657220746f206e6f6e20455243373231526560008201527f63656976657220696d706c656d656e7465720000000000000000000000000000602082015250565b60006133816032836123eb565b915061338c82613325565b604082019050919050565b600060208201905081810360008301526133b081613374565b9050919050565b60006133c282612492565b91507fffffffffffffffffffffffffffffffffffffffffffffffffffffffffffffffff82036133f4576133f36131b6565b5b600182019050919050565b7f4e487b7100000000000000000000000000000000000000000000000000000000600052601260045260246000fd5b600061343982612492565b915061344483612492565b925082613454576134536133ff565b5b828204905092915050565b600061346a82612492565b915061347583612492565b925082613485576134846133ff565b5b828206905092915050565b7f4552433732313a2072656d6f766520746f6b656e2066726f6d207a65726f206160008201527f6464726573730000000000000000000000000000000000000000000000000000602082015250565b60006134ec6026836123eb565b91506134f782613490565b604082019050919050565b6000602082019050818103600083015261351b816134df565b9050919050565b7f4552433732313a20746f6b656e206e6f7420666f756e6420696e20656e756d6560008201527f726174696f6e0000000000000000000000000000000000000000000000000000602082015250565b600061357e6026836123eb565b915061358982613522565b604082019050919050565b600060208201905081810360008301526135ad81613571565b9050919050565b7f4e487b7100000000000000000000000000000000000000000000000000000000600052603160045260246000fd5b7f4552433732313a20746f6b656e20616c72656164792061646465640000000000600082015250565b6000613619601b836123eb565b9150613624826135e3565b602082019050919050565b600060208201905081810360008301526136488161360c565b9050919050565b7f4552433732313a20746f6b656e206e6f7420666f756e6420696e20676c6f626160008201527f6c20656e756d65726174696f6e00000000000000000000000000000000000000602082015250565b60006136ab602d836123eb565b91506136b68261364f565b604082019050919050565b600060208201905081810360008301526136da8161369e565b9050919050565b600081519050919050565b600082825260208201905092915050565b6000613708826136e1565b61371281856136ec565b93506137228185602086016123fc565b61372b81612426565b840191505092915050565b600060808201905061374b6000830187612527565b6137586020830186612527565b61376560408301856125bd565b818103606083015261377781846136fd565b905095945050505050565b60008151905061379181612351565b92915050565b6000602082840312156137ad576137ac61231b565b5b60006137bb84828501613782565b9150509291505056fea264697066735822122072e88346996af8523d0075a5f0974b668a32d8d2ca9b4776a831e0a3ab660ad864736f6c634300081c0033",
  "linkReferences": {},
  "deployedLinkReferences": {}
}